{
  "_format": "hh-sol-artifact-1",
  "contractName": "RecordScore",
  "sourceName": "contracts/RecordScore.sol",
  "abi": [
    {
      "inputs": [],
      "stateMutability": "nonpayable",
      "type": "constructor"
    },
    {
      "inputs": [
        {
          "internalType": "address",
          "name": "sender",
          "type": "address"
        },
        {
          "internalType": "address",
          "name": "receiveToken",
          "type": "address"
        },
        {
          "internalType": "uint256",
          "name": "amount",
          "type": "uint256"
        },
        {
          "internalType": "string",
          "name": "paymentId",
          "type": "string"
        },
        {
          "internalType": "string",
          "name": "optional",
          "type": "string"
        }
      ],
      "name": "scoreTransaction",
      "outputs": [],
      "stateMutability": "nonpayable",
      "type": "function"
    },
    {
      "inputs": [
        {
          "internalType": "address",
          "name": "_newContractOwner",
          "type": "address"
        }
      ],
      "name": "updateContractOwner",
      "outputs": [],
      "stateMutability": "nonpayable",
      "type": "function"
    },
    {
      "inputs": [
        {
          "internalType": "address",
          "name": "_contractScoreBoard",
          "type": "address"
        }
      ],
      "name": "updateContractScoreBoard",
      "outputs": [],
      "stateMutability": "nonpayable",
      "type": "function"
    },
    {
      "inputs": [
        {
          "internalType": "address",
          "name": "_newcontractIsRecorder",
          "type": "address"
        }
      ],
      "name": "updatecontractIsRecorder",
      "outputs": [],
      "stateMutability": "nonpayable",
      "type": "function"
    }
  ],
  "bytecode": "0x608060405234801561001057600080fd5b50336000806101000a81548173ffffffffffffffffffffffffffffffffffffffff021916908373ffffffffffffffffffffffffffffffffffffffff1602179055506000600160006101000a81548173ffffffffffffffffffffffffffffffffffffffff021916908373ffffffffffffffffffffffffffffffffffffffff1602179055506000600260006101000a81548173ffffffffffffffffffffffffffffffffffffffff021916908373ffffffffffffffffffffffffffffffffffffffff160217905550611012806100e46000396000f3fe608060405234801561001057600080fd5b506004361061004c5760003560e01c806361d9f2721461005157806379112d8e1461006d578063b4ce68c614610089578063eb9df7db146100a5575b600080fd5b61006b600480360381019061006691906107e4565b6100c1565b005b610087600480360381019061008291906107e4565b610192565b005b6100a3600480360381019061009e919061098d565b610264565b005b6100bf60048036038101906100ba91906107e4565b6103b7565b005b60008054906101000a900473ffffffffffffffffffffffffffffffffffffffff1673ffffffffffffffffffffffffffffffffffffffff163373ffffffffffffffffffffffffffffffffffffffff161461014f576040517f08c379a000000000000000000000000000000000000000000000000000000000815260040161014690610ac3565b60405180910390fd5b806000806101000a81548173ffffffffffffffffffffffffffffffffffffffff021916908373ffffffffffffffffffffffffffffffffffffffff16021790555050565b60008054906101000a900473ffffffffffffffffffffffffffffffffffffffff1673ffffffffffffffffffffffffffffffffffffffff163373ffffffffffffffffffffffffffffffffffffffff1614610220576040517f08c379a000000000000000000000000000000000000000000000000000000000815260040161021790610ac3565b60405180910390fd5b80600160006101000a81548173ffffffffffffffffffffffffffffffffffffffff021916908373ffffffffffffffffffffffffffffffffffffffff16021790555050565b60006102878673ffffffffffffffffffffffffffffffffffffffff166014610488565b6102a88673ffffffffffffffffffffffffffffffffffffffff166014610488565b6102b1866106c4565b85856040516020016102c7959493929190610d1c565b60405160208183030381529060405290506000600160009054906101000a900473ffffffffffffffffffffffffffffffffffffffff1673ffffffffffffffffffffffffffffffffffffffff16600061271090846040516103279190610df0565b600060405180830381858888f193505050503d8060008114610365576040519150601f19603f3d011682016040523d82523d6000602084013e61036a565b606091505b50509050806103ae576040517f08c379a00000000000000000000000000000000000000000000000000000000081526004016103a590610e53565b60405180910390fd5b50505050505050565b60008054906101000a900473ffffffffffffffffffffffffffffffffffffffff1673ffffffffffffffffffffffffffffffffffffffff163373ffffffffffffffffffffffffffffffffffffffff1614610445576040517f08c379a000000000000000000000000000000000000000000000000000000000815260040161043c90610ac3565b60405180910390fd5b806000806101000a81548173ffffffffffffffffffffffffffffffffffffffff021916908373ffffffffffffffffffffffffffffffffffffffff16021790555050565b60606000600283600261049b9190610ea2565b6104a59190610ee4565b67ffffffffffffffff8111156104be576104bd610862565b5b6040519080825280601f01601f1916602001820160405280156104f05781602001600182028036833780820191505090505b5090507f30000000000000000000000000000000000000000000000000000000000000008160008151811061052857610527610f18565b5b60200101907effffffffffffffffffffffffffffffffffffffffffffffffffffffffffffff1916908160001a9053507f78000000000000000000000000000000000000000000000000000000000000008160018151811061058c5761058b610f18565b5b60200101907effffffffffffffffffffffffffffffffffffffffffffffffffffffffffffff1916908160001a905350600060018460026105cc9190610ea2565b6105d69190610ee4565b90505b6001811115610676577f3031323334353637383961626364656600000000000000000000000000000000600f86166010811061061857610617610f18565b5b1a60f81b82828151811061062f5761062e610f18565b5b60200101907effffffffffffffffffffffffffffffffffffffffffffffffffffffffffffff1916908160001a905350600485901c94508061066f90610f47565b90506105d9565b50600084146106ba576040517f08c379a00000000000000000000000000000000000000000000000000000000081526004016106b190610fbc565b60405180910390fd5b8091505092915050565b60606106db8260016106d5856106e2565b01610488565b9050919050565b600080600090506000608084901c111561070457608083901c92506010810190505b6000604084901c111561071f57604083901c92506008810190505b6000602084901c111561073a57602083901c92506004810190505b6000601084901c111561075557601083901c92506002810190505b6000600884901c1115610769576001810190505b80915050919050565b6000604051905090565b600080fd5b600080fd5b600073ffffffffffffffffffffffffffffffffffffffff82169050919050565b60006107b182610786565b9050919050565b6107c1816107a6565b81146107cc57600080fd5b50565b6000813590506107de816107b8565b92915050565b6000602082840312156107fa576107f961077c565b5b6000610808848285016107cf565b91505092915050565b6000819050919050565b61082481610811565b811461082f57600080fd5b50565b6000813590506108418161081b565b92915050565b600080fd5b600080fd5b6000601f19601f8301169050919050565b7f4e487b7100000000000000000000000000000000000000000000000000000000600052604160045260246000fd5b61089a82610851565b810181811067ffffffffffffffff821117156108b9576108b8610862565b5b80604052505050565b60006108cc610772565b90506108d88282610891565b919050565b600067ffffffffffffffff8211156108f8576108f7610862565b5b61090182610851565b9050602081019050919050565b82818337600083830152505050565b600061093061092b846108dd565b6108c2565b90508281526020810184848401111561094c5761094b61084c565b5b61095784828561090e565b509392505050565b600082601f83011261097457610973610847565b5b813561098484826020860161091d565b91505092915050565b600080600080600060a086880312156109a9576109a861077c565b5b60006109b7888289016107cf565b95505060206109c8888289016107cf565b94505060406109d988828901610832565b935050606086013567ffffffffffffffff8111156109fa576109f9610781565b5b610a068882890161095f565b925050608086013567ffffffffffffffff811115610a2757610a26610781565b5b610a338882890161095f565b9150509295509295909350565b600082825260208201905092915050565b7f796f7520646f6e277420686176652061207065726d697373696f6e202845727260008201527f6f72203a20343033290000000000000000000000000000000000000000000000602082015250565b6000610aad602983610a40565b9150610ab882610a51565b604082019050919050565b60006020820190508181036000830152610adc81610aa0565b9050919050565b600081905092915050565b7f7b227061796d656e7446726f6d223a2022000000000000000000000000000000600082015250565b6000610b24601183610ae3565b9150610b2f82610aee565b601182019050919050565b600081519050919050565b60005b83811015610b63578082015181840152602081019050610b48565b60008484015250505050565b6000610b7a82610b3a565b610b848185610ae3565b9350610b94818560208601610b45565b80840191505092915050565b7f222c2022546f6b656e223a220000000000000000000000000000000000000000600082015250565b6000610bd6600c83610ae3565b9150610be182610ba0565b600c82019050919050565b7f222c2022616d6f756e74223a2000000000000000000000000000000000000000600082015250565b6000610c22600d83610ae3565b9150610c2d82610bec565b600d82019050919050565b7f2c20227061796d656e744964223a220000000000000000000000000000000000600082015250565b6000610c6e600f83610ae3565b9150610c7982610c38565b600f82019050919050565b7f222c20226465736372697074696f6e223a220000000000000000000000000000600082015250565b6000610cba601283610ae3565b9150610cc582610c84565b601282019050919050565b7f227d000000000000000000000000000000000000000000000000000000000000600082015250565b6000610d06600283610ae3565b9150610d1182610cd0565b600282019050919050565b6000610d2782610b17565b9150610d338288610b6f565b9150610d3e82610bc9565b9150610d4a8287610b6f565b9150610d5582610c15565b9150610d618286610b6f565b9150610d6c82610c61565b9150610d788285610b6f565b9150610d8382610cad565b9150610d8f8284610b6f565b9150610d9a82610cf9565b91508190509695505050505050565b600081519050919050565b600081905092915050565b6000610dca82610da9565b610dd48185610db4565b9350610de4818560208601610b45565b80840191505092915050565b6000610dfc8284610dbf565b915081905092915050565b7f4661696c656420746f2073656e64206574686572000000000000000000000000600082015250565b6000610e3d601483610a40565b9150610e4882610e07565b602082019050919050565b60006020820190508181036000830152610e6c81610e30565b9050919050565b7f4e487b7100000000000000000000000000000000000000000000000000000000600052601160045260246000fd5b6000610ead82610811565b9150610eb883610811565b9250828202610ec681610811565b91508282048414831517610edd57610edc610e73565b5b5092915050565b6000610eef82610811565b9150610efa83610811565b9250828201905080821115610f1257610f11610e73565b5b92915050565b7f4e487b7100000000000000000000000000000000000000000000000000000000600052603260045260246000fd5b6000610f5282610811565b915060008203610f6557610f64610e73565b5b600182039050919050565b7f537472696e67733a20686578206c656e67746820696e73756666696369656e74600082015250565b6000610fa6602083610a40565b9150610fb182610f70565b602082019050919050565b60006020820190508181036000830152610fd581610f99565b905091905056fea26469706673582212206ea7ae3653be56005b62ce8939888f1e0b208e6030529093f2ba6adb8d84a46664736f6c63430008110033",
  "linkReferences": {},
  "deployedLinkReferences": {}
}