{
  "_format": "hh-sol-artifact-1",
  "contractName": "RecordScore",
  "sourceName": "contracts/RecordScore.sol",
  "abi": [
    {
      "inputs": [],
      "stateMutability": "nonpayable",
      "type": "constructor"
    },
    {
      "inputs": [],
      "name": "contractOwner",
      "outputs": [
        {
          "internalType": "address",
          "name": "",
          "type": "address"
        }
      ],
      "stateMutability": "view",
      "type": "function"
    },
    {
      "inputs": [],
      "name": "contractScoreBoard",
      "outputs": [
        {
          "internalType": "address",
          "name": "",
          "type": "address"
        }
      ],
      "stateMutability": "view",
      "type": "function"
    },
    {
      "inputs": [
        {
          "internalType": "address",
          "name": "sender",
          "type": "address"
        },
        {
          "internalType": "address",
          "name": "receiveToken",
          "type": "address"
        },
        {
          "internalType": "uint256",
          "name": "amount",
          "type": "uint256"
        },
        {
          "internalType": "string",
          "name": "paymentId",
          "type": "string"
        },
        {
          "internalType": "string",
          "name": "optional",
          "type": "string"
        }
      ],
      "name": "scoreTransaction",
      "outputs": [],
      "stateMutability": "nonpayable",
      "type": "function"
    },
    {
      "inputs": [
        {
          "internalType": "address",
          "name": "_newContractOwner",
          "type": "address"
        }
      ],
      "name": "updateContractOwner",
      "outputs": [],
      "stateMutability": "nonpayable",
      "type": "function"
    },
    {
      "inputs": [
        {
          "internalType": "address",
          "name": "_contractScoreBoard",
          "type": "address"
        }
      ],
      "name": "updateContractScoreBoard",
      "outputs": [],
      "stateMutability": "nonpayable",
      "type": "function"
    }
  ],
  "bytecode": "0x608060405234801561001057600080fd5b50336000806101000a81548173ffffffffffffffffffffffffffffffffffffffff021916908373ffffffffffffffffffffffffffffffffffffffff1602179055506000600160006101000a81548173ffffffffffffffffffffffffffffffffffffffff021916908373ffffffffffffffffffffffffffffffffffffffff160217905550610b63806100a26000396000f3fe608060405234801561001057600080fd5b50600436106100575760003560e01c806379112d8e1461005c5780639d06c23814610078578063b4ce68c614610096578063ce606ee0146100b2578063eb9df7db146100d0575b600080fd5b61007660048036038101906100719190610456565b6100ec565b005b6100806101be565b60405161008d9190610492565b60405180910390f35b6100b060048036038101906100ab9190610629565b6101e4565b005b6100ba6102ef565b6040516100c79190610492565b60405180910390f35b6100ea60048036038101906100e59190610456565b610313565b005b60008054906101000a900473ffffffffffffffffffffffffffffffffffffffff1673ffffffffffffffffffffffffffffffffffffffff163373ffffffffffffffffffffffffffffffffffffffff161461017a576040517f08c379a00000000000000000000000000000000000000000000000000000000081526004016101719061075f565b60405180910390fd5b80600160006101000a81548173ffffffffffffffffffffffffffffffffffffffff021916908373ffffffffffffffffffffffffffffffffffffffff16021790555050565b600160009054906101000a900473ffffffffffffffffffffffffffffffffffffffff1681565b600085858585856040516020016101ff9594939291906109d5565b60405160208183030381529060405290506000600160009054906101000a900473ffffffffffffffffffffffffffffffffffffffff1673ffffffffffffffffffffffffffffffffffffffff166000612710908460405161025f9190610aaa565b600060405180830381858888f193505050503d806000811461029d576040519150601f19603f3d011682016040523d82523d6000602084013e6102a2565b606091505b50509050806102e6576040517f08c379a00000000000000000000000000000000000000000000000000000000081526004016102dd90610b0d565b60405180910390fd5b50505050505050565b60008054906101000a900473ffffffffffffffffffffffffffffffffffffffff1681565b60008054906101000a900473ffffffffffffffffffffffffffffffffffffffff1673ffffffffffffffffffffffffffffffffffffffff163373ffffffffffffffffffffffffffffffffffffffff16146103a1576040517f08c379a00000000000000000000000000000000000000000000000000000000081526004016103989061075f565b60405180910390fd5b806000806101000a81548173ffffffffffffffffffffffffffffffffffffffff021916908373ffffffffffffffffffffffffffffffffffffffff16021790555050565b6000604051905090565b600080fd5b600080fd5b600073ffffffffffffffffffffffffffffffffffffffff82169050919050565b6000610423826103f8565b9050919050565b61043381610418565b811461043e57600080fd5b50565b6000813590506104508161042a565b92915050565b60006020828403121561046c5761046b6103ee565b5b600061047a84828501610441565b91505092915050565b61048c81610418565b82525050565b60006020820190506104a76000830184610483565b92915050565b6000819050919050565b6104c0816104ad565b81146104cb57600080fd5b50565b6000813590506104dd816104b7565b92915050565b600080fd5b600080fd5b6000601f19601f8301169050919050565b7f4e487b7100000000000000000000000000000000000000000000000000000000600052604160045260246000fd5b610536826104ed565b810181811067ffffffffffffffff82111715610555576105546104fe565b5b80604052505050565b60006105686103e4565b9050610574828261052d565b919050565b600067ffffffffffffffff821115610594576105936104fe565b5b61059d826104ed565b9050602081019050919050565b82818337600083830152505050565b60006105cc6105c784610579565b61055e565b9050828152602081018484840111156105e8576105e76104e8565b5b6105f38482856105aa565b509392505050565b600082601f8301126106105761060f6104e3565b5b81356106208482602086016105b9565b91505092915050565b600080600080600060a08688031215610645576106446103ee565b5b600061065388828901610441565b955050602061066488828901610441565b9450506040610675888289016104ce565b935050606086013567ffffffffffffffff811115610696576106956103f3565b5b6106a2888289016105fb565b925050608086013567ffffffffffffffff8111156106c3576106c26103f3565b5b6106cf888289016105fb565b9150509295509295909350565b600082825260208201905092915050565b7f796f7520646f6e277420686176652061207065726d697373696f6e202845727260008201527f6f72203a20343033290000000000000000000000000000000000000000000000602082015250565b60006107496029836106dc565b9150610754826106ed565b604082019050919050565b600060208201905081810360008301526107788161073c565b9050919050565b600081905092915050565b7f5061796d656e742066726f6d3a00000000000000000000000000000000000000600082015250565b60006107c0600d8361077f565b91506107cb8261078a565b600d82019050919050565b60008160601b9050919050565b60006107ee826107d6565b9050919050565b6000610800826107e3565b9050919050565b61081861081382610418565b6107f5565b82525050565b7f546f6b656e3a0000000000000000000000000000000000000000000000000000600082015250565b600061085460068361077f565b915061085f8261081e565b600682019050919050565b7f416d6f756e743a00000000000000000000000000000000000000000000000000600082015250565b60006108a060078361077f565b91506108ab8261086a565b600782019050919050565b6000819050919050565b6108d16108cc826104ad565b6108b6565b82525050565b7f5061796d656e742049443a000000000000000000000000000000000000000000600082015250565b600061090d600b8361077f565b9150610918826108d7565b600b82019050919050565b600081519050919050565b60005b8381101561094c578082015181840152602081019050610931565b60008484015250505050565b600061096382610923565b61096d818561077f565b935061097d81856020860161092e565b80840191505092915050565b7f4f7468657220496e666f3a000000000000000000000000000000000000000000600082015250565b60006109bf600b8361077f565b91506109ca82610989565b600b82019050919050565b60006109e0826107b3565b91506109ec8288610807565b6014820191506109fb82610847565b9150610a078287610807565b601482019150610a1682610893565b9150610a2282866108c0565b602082019150610a3182610900565b9150610a3d8285610958565b9150610a48826109b2565b9150610a548284610958565b91508190509695505050505050565b600081519050919050565b600081905092915050565b6000610a8482610a63565b610a8e8185610a6e565b9350610a9e81856020860161092e565b80840191505092915050565b6000610ab68284610a79565b915081905092915050565b7f4661696c656420746f2073656e64206574686572000000000000000000000000600082015250565b6000610af76014836106dc565b9150610b0282610ac1565b602082019050919050565b60006020820190508181036000830152610b2681610aea565b905091905056fea264697066735822122094b6c74656894ae8821ef79389bd20a1046c254b951ec97a7f711dfb3c65f1cb64736f6c63430008110033",
  "linkReferences": {},
  "deployedLinkReferences": {}
}