{
  "_format": "hh-sol-artifact-1",
  "contractName": "ScoreTxExtention",
  "sourceName": "contracts/ScoreTxExtension.sol",
  "abi": [
    {
      "inputs": [],
      "stateMutability": "nonpayable",
      "type": "constructor"
    },
    {
      "anonymous": false,
      "inputs": [
        {
          "indexed": true,
          "internalType": "address",
          "name": "previousOwner",
          "type": "address"
        },
        {
          "indexed": true,
          "internalType": "address",
          "name": "newOwner",
          "type": "address"
        }
      ],
      "name": "OwnershipTransferred",
      "type": "event"
    },
    {
      "anonymous": false,
      "inputs": [
        {
          "indexed": false,
          "internalType": "address",
          "name": "tokenContract",
          "type": "address"
        },
        {
          "indexed": false,
          "internalType": "uint256",
          "name": "amount",
          "type": "uint256"
        }
      ],
      "name": "TokenWithdrawn",
      "type": "event"
    },
    {
      "inputs": [],
      "name": "contractOwner",
      "outputs": [
        {
          "internalType": "address",
          "name": "",
          "type": "address"
        }
      ],
      "stateMutability": "view",
      "type": "function"
    },
    {
      "inputs": [],
      "name": "owner",
      "outputs": [
        {
          "internalType": "address",
          "name": "",
          "type": "address"
        }
      ],
      "stateMutability": "view",
      "type": "function"
    },
    {
      "inputs": [
        {
          "internalType": "address",
          "name": "receiveToken",
          "type": "address"
        },
        {
          "internalType": "uint256",
          "name": "amount",
          "type": "uint256"
        },
        {
          "internalType": "bytes",
          "name": "",
          "type": "bytes"
        },
        {
          "internalType": "string",
          "name": "",
          "type": "string"
        },
        {
          "internalType": "bytes",
          "name": "reserved",
          "type": "bytes"
        }
      ],
      "name": "receivePayment",
      "outputs": [],
      "stateMutability": "payable",
      "type": "function"
    },
    {
      "inputs": [],
      "name": "renounceOwnership",
      "outputs": [],
      "stateMutability": "nonpayable",
      "type": "function"
    },
    {
      "inputs": [],
      "name": "scoreBoard",
      "outputs": [
        {
          "internalType": "address",
          "name": "",
          "type": "address"
        }
      ],
      "stateMutability": "view",
      "type": "function"
    },
    {
      "inputs": [],
      "name": "supportSlashExtensionInterface",
      "outputs": [
        {
          "internalType": "uint8",
          "name": "",
          "type": "uint8"
        }
      ],
      "stateMutability": "pure",
      "type": "function"
    },
    {
      "inputs": [
        {
          "internalType": "address",
          "name": "newOwner",
          "type": "address"
        }
      ],
      "name": "transferOwnership",
      "outputs": [],
      "stateMutability": "nonpayable",
      "type": "function"
    },
    {
      "inputs": [
        {
          "internalType": "address",
          "name": "_newContractOwner",
          "type": "address"
        }
      ],
      "name": "updateContractOwner",
      "outputs": [],
      "stateMutability": "nonpayable",
      "type": "function"
    },
    {
      "inputs": [
        {
          "internalType": "address",
          "name": "_scoreContractAddress",
          "type": "address"
        }
      ],
      "name": "updateScoreContractAddress",
      "outputs": [],
      "stateMutability": "nonpayable",
      "type": "function"
    },
    {
      "inputs": [
        {
          "internalType": "address",
          "name": "tokenContract",
          "type": "address"
        }
      ],
      "name": "withdrawToken",
      "outputs": [],
      "stateMutability": "nonpayable",
      "type": "function"
    }
  ],
  "bytecode": "0x608060405234801561001057600080fd5b5061002d6100226100b560201b60201c565b6100bd60201b60201c565b33600160006101000a81548173ffffffffffffffffffffffffffffffffffffffff021916908373ffffffffffffffffffffffffffffffffffffffff1602179055506000600260006101000a81548173ffffffffffffffffffffffffffffffffffffffff021916908373ffffffffffffffffffffffffffffffffffffffff160217905550610181565b600033905090565b60008060009054906101000a900473ffffffffffffffffffffffffffffffffffffffff169050816000806101000a81548173ffffffffffffffffffffffffffffffffffffffff021916908373ffffffffffffffffffffffffffffffffffffffff1602179055508173ffffffffffffffffffffffffffffffffffffffff168173ffffffffffffffffffffffffffffffffffffffff167f8be0079c531659141344cd1fd0a4f28419497f9722a3daafe3b4186f6b6457e060405160405180910390a35050565b611bfd806101906000396000f3fe6080604052600436106100915760003560e01c8063ce606ee011610059578063ce606ee014610157578063eb9df7db14610182578063f2fde38b146101ab578063f7b0d10c146101d4578063f7b4d2f2146101f057610091565b80630973999514610096578063715018a6146100c157806389476069146100d85780638ab43142146101015780638da5cb5b1461012c575b600080fd5b3480156100a257600080fd5b506100ab610219565b6040516100b8919061108d565b60405180910390f35b3480156100cd57600080fd5b506100d661023f565b005b3480156100e457600080fd5b506100ff60048036038101906100fa91906110de565b610253565b005b34801561010d57600080fd5b5061011661037e565b6040516101239190611127565b60405180910390f35b34801561013857600080fd5b50610141610387565b60405161014e919061108d565b60405180910390f35b34801561016357600080fd5b5061016c6103b0565b604051610179919061108d565b60405180910390f35b34801561018e57600080fd5b506101a960048036038101906101a491906110de565b6103d6565b005b3480156101b757600080fd5b506101d260048036038101906101cd91906110de565b6104aa565b005b6101ee60048036038101906101e99190611233565b61052d565b005b3480156101fc57600080fd5b50610217600480360381019061021291906110de565b6105b9565b005b600260009054906101000a900473ffffffffffffffffffffffffffffffffffffffff1681565b610247610657565b61025160006106d5565b565b61025b610657565b6000610286308373ffffffffffffffffffffffffffffffffffffffff1661079990919063ffffffff16565b116102c6576040517f08c379a00000000000000000000000000000000000000000000000000000000081526004016102bd9061136c565b60405180910390fd5b610319336102f3308473ffffffffffffffffffffffffffffffffffffffff1661079990919063ffffffff16565b8373ffffffffffffffffffffffffffffffffffffffff1661084b9092919063ffffffff16565b507fa2bd9fcfcdba69f52bcd9a520846ad4bd685b187483f53efc42d035b2ddebff081610365308473ffffffffffffffffffffffffffffffffffffffff1661079990919063ffffffff16565b60405161037392919061139b565b60405180910390a150565b60006002905090565b60008060009054906101000a900473ffffffffffffffffffffffffffffffffffffffff16905090565b600160009054906101000a900473ffffffffffffffffffffffffffffffffffffffff1681565b600160009054906101000a900473ffffffffffffffffffffffffffffffffffffffff1673ffffffffffffffffffffffffffffffffffffffff163373ffffffffffffffffffffffffffffffffffffffff1614610466576040517f08c379a000000000000000000000000000000000000000000000000000000000815260040161045d90611436565b60405180910390fd5b80600160006101000a81548173ffffffffffffffffffffffffffffffffffffffff021916908373ffffffffffffffffffffffffffffffffffffffff16021790555050565b6104b2610657565b600073ffffffffffffffffffffffffffffffffffffffff168173ffffffffffffffffffffffffffffffffffffffff1603610521576040517f08c379a0000000000000000000000000000000000000000000000000000000008152600401610518906114c8565b60405180910390fd5b61052a816106d5565b50565b60008711610570576040517f08c379a000000000000000000000000000000000000000000000000000000000815260040161056790611534565b60405180910390fd5b6105a43361057c610387565b898b73ffffffffffffffffffffffffffffffffffffffff166108d4909392919063ffffffff16565b6105af338989610a39565b5050505050505050565b600160009054906101000a900473ffffffffffffffffffffffffffffffffffffffff1673ffffffffffffffffffffffffffffffffffffffff163373ffffffffffffffffffffffffffffffffffffffff161461061357600080fd5b80600260006101000a81548173ffffffffffffffffffffffffffffffffffffffff021916908373ffffffffffffffffffffffffffffffffffffffff16021790555050565b61065f610b2b565b73ffffffffffffffffffffffffffffffffffffffff1661067d610387565b73ffffffffffffffffffffffffffffffffffffffff16146106d3576040517f08c379a00000000000000000000000000000000000000000000000000000000081526004016106ca906115a0565b60405180910390fd5b565b60008060009054906101000a900473ffffffffffffffffffffffffffffffffffffffff169050816000806101000a81548173ffffffffffffffffffffffffffffffffffffffff021916908373ffffffffffffffffffffffffffffffffffffffff1602179055508173ffffffffffffffffffffffffffffffffffffffff168173ffffffffffffffffffffffffffffffffffffffff167f8be0079c531659141344cd1fd0a4f28419497f9722a3daafe3b4186f6b6457e060405160405180910390a35050565b60006107a483610b33565b156107c8578173ffffffffffffffffffffffffffffffffffffffff16319050610845565b8273ffffffffffffffffffffffffffffffffffffffff166370a08231836040518263ffffffff1660e01b8152600401610801919061108d565b602060405180830381865afa15801561081e573d6000803e3d6000fd5b505050506040513d601f19601f8201168201806040525081019061084291906115d5565b90505b92915050565b600080820361085d57600190506108cd565b61086684610b33565b1561089d57610894828473ffffffffffffffffffffffffffffffffffffffff16610bb590919063ffffffff16565b600190506108cd565b6108c883838673ffffffffffffffffffffffffffffffffffffffff16610ca99092919063ffffffff16565b600190505b9392505050565b6000810315610a33576108e684610b33565b15610a04573373ffffffffffffffffffffffffffffffffffffffff168373ffffffffffffffffffffffffffffffffffffffff161480156109265750803410155b610965576040517f08c379a000000000000000000000000000000000000000000000000000000000815260040161095c90611674565b60405180910390fd5b3073ffffffffffffffffffffffffffffffffffffffff168273ffffffffffffffffffffffffffffffffffffffff16146109c2576109c1818373ffffffffffffffffffffffffffffffffffffffff16610bb590919063ffffffff16565b5b803411156109ff576109fe81346109d991906116c3565b3373ffffffffffffffffffffffffffffffffffffffff16610bb590919063ffffffff16565b5b610a32565b610a318383838773ffffffffffffffffffffffffffffffffffffffff16610d2f909392919063ffffffff16565b5b5b50505050565b6000600260009054906101000a900473ffffffffffffffffffffffffffffffffffffffff16905060008173ffffffffffffffffffffffffffffffffffffffff166371959f428686866040518463ffffffff1660e01b8152600401610a9f939291906116f7565b6020604051808303816000875af1158015610abe573d6000803e3d6000fd5b505050506040513d601f19601f82011682018060405250810190610ae29190611766565b905080610b24576040517f08c379a0000000000000000000000000000000000000000000000000000000008152600401610b1b906117df565b60405180910390fd5b5050505050565b600033905090565b60008073ffffffffffffffffffffffffffffffffffffffff168273ffffffffffffffffffffffffffffffffffffffff161480610bae575073eeeeeeeeeeeeeeeeeeeeeeeeeeeeeeeeeeeeeeee73ffffffffffffffffffffffffffffffffffffffff168273ffffffffffffffffffffffffffffffffffffffff16145b9050919050565b80471015610bf8576040517f08c379a0000000000000000000000000000000000000000000000000000000008152600401610bef9061184b565b60405180910390fd5b60008273ffffffffffffffffffffffffffffffffffffffff1682604051610c1e9061189c565b60006040518083038185875af1925050503d8060008114610c5b576040519150601f19603f3d011682016040523d82523d6000602084013e610c60565b606091505b5050905080610ca4576040517f08c379a0000000000000000000000000000000000000000000000000000000008152600401610c9b90611923565b60405180910390fd5b505050565b610d2a8363a9059cbb60e01b8484604051602401610cc892919061139b565b604051602081830303815290604052907bffffffffffffffffffffffffffffffffffffffffffffffffffffffff19166020820180517bffffffffffffffffffffffffffffffffffffffffffffffffffffffff8381831617835250505050610db8565b505050565b610db2846323b872dd60e01b858585604051602401610d50939291906116f7565b604051602081830303815290604052907bffffffffffffffffffffffffffffffffffffffffffffffffffffffff19166020820180517bffffffffffffffffffffffffffffffffffffffffffffffffffffffff8381831617835250505050610db8565b50505050565b6000610e1a826040518060400160405280602081526020017f5361666545524332303a206c6f772d6c6576656c2063616c6c206661696c65648152508573ffffffffffffffffffffffffffffffffffffffff16610e7f9092919063ffffffff16565b9050600081511115610e7a5780806020019051810190610e3a9190611766565b610e79576040517f08c379a0000000000000000000000000000000000000000000000000000000008152600401610e70906119b5565b60405180910390fd5b5b505050565b6060610e8e8484600085610e97565b90509392505050565b606082471015610edc576040517f08c379a0000000000000000000000000000000000000000000000000000000008152600401610ed390611a47565b60405180910390fd5b6000808673ffffffffffffffffffffffffffffffffffffffff168587604051610f059190611acd565b60006040518083038185875af1925050503d8060008114610f42576040519150601f19603f3d011682016040523d82523d6000602084013e610f47565b606091505b5091509150610f5887838387610f64565b92505050949350505050565b60608315610fc6576000835103610fbe57610f7e85610fd9565b610fbd576040517f08c379a0000000000000000000000000000000000000000000000000000000008152600401610fb490611b30565b60405180910390fd5b5b829050610fd1565b610fd08383610ffc565b5b949350505050565b6000808273ffffffffffffffffffffffffffffffffffffffff163b119050919050565b60008251111561100f5781518083602001fd5b806040517f08c379a00000000000000000000000000000000000000000000000000000000081526004016110439190611ba5565b60405180910390fd5b600073ffffffffffffffffffffffffffffffffffffffff82169050919050565b60006110778261104c565b9050919050565b6110878161106c565b82525050565b60006020820190506110a2600083018461107e565b92915050565b600080fd5b600080fd5b6110bb8161106c565b81146110c657600080fd5b50565b6000813590506110d8816110b2565b92915050565b6000602082840312156110f4576110f36110a8565b5b6000611102848285016110c9565b91505092915050565b600060ff82169050919050565b6111218161110b565b82525050565b600060208201905061113c6000830184611118565b92915050565b6000819050919050565b61115581611142565b811461116057600080fd5b50565b6000813590506111728161114c565b92915050565b600080fd5b600080fd5b600080fd5b60008083601f84011261119d5761119c611178565b5b8235905067ffffffffffffffff8111156111ba576111b961117d565b5b6020830191508360018202830111156111d6576111d5611182565b5b9250929050565b60008083601f8401126111f3576111f2611178565b5b8235905067ffffffffffffffff8111156112105761120f61117d565b5b60208301915083600182028301111561122c5761122b611182565b5b9250929050565b60008060008060008060008060a0898b031215611253576112526110a8565b5b60006112618b828c016110c9565b98505060206112728b828c01611163565b975050604089013567ffffffffffffffff811115611293576112926110ad565b5b61129f8b828c01611187565b9650965050606089013567ffffffffffffffff8111156112c2576112c16110ad565b5b6112ce8b828c016111dd565b9450945050608089013567ffffffffffffffff8111156112f1576112f06110ad565b5b6112fd8b828c01611187565b92509250509295985092959890939650565b600082825260208201905092915050565b7f62616c616e6365206973207a65726f0000000000000000000000000000000000600082015250565b6000611356600f8361130f565b915061136182611320565b602082019050919050565b6000602082019050818103600083015261138581611349565b9050919050565b61139581611142565b82525050565b60006040820190506113b0600083018561107e565b6113bd602083018461138c565b9392505050565b7f796f7520646f6e277420686176652061207065726d697373696f6e202845727260008201527f6f72203a20343033290000000000000000000000000000000000000000000000602082015250565b600061142060298361130f565b915061142b826113c4565b604082019050919050565b6000602082019050818103600083015261144f81611413565b9050919050565b7f4f776e61626c653a206e6577206f776e657220697320746865207a65726f206160008201527f6464726573730000000000000000000000000000000000000000000000000000602082015250565b60006114b260268361130f565b91506114bd82611456565b604082019050919050565b600060208201905081810360008301526114e1816114a5565b9050919050565b7f696e76616c696420616d6f756e74000000000000000000000000000000000000600082015250565b600061151e600e8361130f565b9150611529826114e8565b602082019050919050565b6000602082019050818103600083015261154d81611511565b9050919050565b7f4f776e61626c653a2063616c6c6572206973206e6f7420746865206f776e6572600082015250565b600061158a60208361130f565b915061159582611554565b602082019050919050565b600060208201905081810360008301526115b98161157d565b9050919050565b6000815190506115cf8161114c565b92915050565b6000602082840312156115eb576115ea6110a8565b5b60006115f9848285016115c0565b91505092915050565b7f57726f6e6720757365616765206f66204554482e756e6976657273616c54726160008201527f6e7366657246726f6d2829000000000000000000000000000000000000000000602082015250565b600061165e602b8361130f565b915061166982611602565b604082019050919050565b6000602082019050818103600083015261168d81611651565b9050919050565b7f4e487b7100000000000000000000000000000000000000000000000000000000600052601160045260246000fd5b60006116ce82611142565b91506116d983611142565b92508282039050818111156116f1576116f0611694565b5b92915050565b600060608201905061170c600083018661107e565b611719602083018561107e565b611726604083018461138c565b949350505050565b60008115159050919050565b6117438161172e565b811461174e57600080fd5b50565b6000815190506117608161173a565b92915050565b60006020828403121561177c5761177b6110a8565b5b600061178a84828501611751565b91505092915050565b7f4661696c64212121000000000000000000000000000000000000000000000000600082015250565b60006117c960088361130f565b91506117d482611793565b602082019050919050565b600060208201905081810360008301526117f8816117bc565b9050919050565b7f416464726573733a20696e73756666696369656e742062616c616e6365000000600082015250565b6000611835601d8361130f565b9150611840826117ff565b602082019050919050565b6000602082019050818103600083015261186481611828565b9050919050565b600081905092915050565b50565b600061188660008361186b565b915061189182611876565b600082019050919050565b60006118a782611879565b9150819050919050565b7f416464726573733a20756e61626c6520746f2073656e642076616c75652c207260008201527f6563697069656e74206d61792068617665207265766572746564000000000000602082015250565b600061190d603a8361130f565b9150611918826118b1565b604082019050919050565b6000602082019050818103600083015261193c81611900565b9050919050565b7f5361666545524332303a204552433230206f7065726174696f6e20646964206e60008201527f6f74207375636365656400000000000000000000000000000000000000000000602082015250565b600061199f602a8361130f565b91506119aa82611943565b604082019050919050565b600060208201905081810360008301526119ce81611992565b9050919050565b7f416464726573733a20696e73756666696369656e742062616c616e636520666f60008201527f722063616c6c0000000000000000000000000000000000000000000000000000602082015250565b6000611a3160268361130f565b9150611a3c826119d5565b604082019050919050565b60006020820190508181036000830152611a6081611a24565b9050919050565b600081519050919050565b60005b83811015611a90578082015181840152602081019050611a75565b60008484015250505050565b6000611aa782611a67565b611ab1818561186b565b9350611ac1818560208601611a72565b80840191505092915050565b6000611ad98284611a9c565b915081905092915050565b7f416464726573733a2063616c6c20746f206e6f6e2d636f6e7472616374000000600082015250565b6000611b1a601d8361130f565b9150611b2582611ae4565b602082019050919050565b60006020820190508181036000830152611b4981611b0d565b9050919050565b600081519050919050565b6000601f19601f8301169050919050565b6000611b7782611b50565b611b81818561130f565b9350611b91818560208601611a72565b611b9a81611b5b565b840191505092915050565b60006020820190508181036000830152611bbf8184611b6c565b90509291505056fea2646970667358221220db92adce18dccd2f2642fef9dc1d3a80dbbcdd50c751d41a73f2b28e9fb3743f64736f6c63430008110033",
  "linkReferences": {},
  "deployedLinkReferences": {}
}