{
  "_format": "hh-sol-artifact-1",
  "contractName": "ScoreTxExtention",
  "sourceName": "contracts/ScoreTxExtension.sol",
  "abi": [
    {
      "inputs": [],
      "stateMutability": "nonpayable",
      "type": "constructor"
    },
    {
      "anonymous": false,
      "inputs": [
        {
          "indexed": true,
          "internalType": "address",
          "name": "previousOwner",
          "type": "address"
        },
        {
          "indexed": true,
          "internalType": "address",
          "name": "newOwner",
          "type": "address"
        }
      ],
      "name": "OwnershipTransferred",
      "type": "event"
    },
    {
      "anonymous": false,
      "inputs": [
        {
          "indexed": false,
          "internalType": "address",
          "name": "tokenContract",
          "type": "address"
        },
        {
          "indexed": false,
          "internalType": "uint256",
          "name": "amount",
          "type": "uint256"
        }
      ],
      "name": "TokenWithdrawn",
      "type": "event"
    },
    {
      "inputs": [],
      "name": "contractOwner",
      "outputs": [
        {
          "internalType": "address",
          "name": "",
          "type": "address"
        }
      ],
      "stateMutability": "view",
      "type": "function"
    },
    {
      "inputs": [],
      "name": "owner",
      "outputs": [
        {
          "internalType": "address",
          "name": "",
          "type": "address"
        }
      ],
      "stateMutability": "view",
      "type": "function"
    },
    {
      "inputs": [
        {
          "internalType": "address",
          "name": "receiveToken",
          "type": "address"
        },
        {
          "internalType": "uint256",
          "name": "amount",
          "type": "uint256"
        },
        {
          "internalType": "string",
          "name": "paymentId",
          "type": "string"
        },
        {
          "internalType": "string",
          "name": "optional",
          "type": "string"
        }
      ],
      "name": "receivePayment",
      "outputs": [],
      "stateMutability": "payable",
      "type": "function"
    },
    {
      "inputs": [],
      "name": "renounceOwnership",
      "outputs": [],
      "stateMutability": "nonpayable",
      "type": "function"
    },
    {
      "inputs": [],
      "name": "scoreBoard",
      "outputs": [
        {
          "internalType": "address",
          "name": "",
          "type": "address"
        }
      ],
      "stateMutability": "view",
      "type": "function"
    },
    {
      "inputs": [],
      "name": "supportSlashExtensionInterface",
      "outputs": [
        {
          "internalType": "bool",
          "name": "",
          "type": "bool"
        }
      ],
      "stateMutability": "pure",
      "type": "function"
    },
    {
      "inputs": [
        {
          "internalType": "address",
          "name": "newOwner",
          "type": "address"
        }
      ],
      "name": "transferOwnership",
      "outputs": [],
      "stateMutability": "nonpayable",
      "type": "function"
    },
    {
      "inputs": [
        {
          "internalType": "address",
          "name": "_newContractOwner",
          "type": "address"
        }
      ],
      "name": "updateContractOwner",
      "outputs": [],
      "stateMutability": "nonpayable",
      "type": "function"
    },
    {
      "inputs": [
        {
          "internalType": "address",
          "name": "_scoreContractAddress",
          "type": "address"
        }
      ],
      "name": "updateScoreContractAddress",
      "outputs": [],
      "stateMutability": "nonpayable",
      "type": "function"
    },
    {
      "inputs": [
        {
          "internalType": "address",
          "name": "tokenContract",
          "type": "address"
        }
      ],
      "name": "withdrawToken",
      "outputs": [],
      "stateMutability": "nonpayable",
      "type": "function"
    }
  ],
  "bytecode": "0x608060405234801561001057600080fd5b5061002d6100226100b560201b60201c565b6100bd60201b60201c565b33600160006101000a81548173ffffffffffffffffffffffffffffffffffffffff021916908373ffffffffffffffffffffffffffffffffffffffff1602179055506000600260006101000a81548173ffffffffffffffffffffffffffffffffffffffff021916908373ffffffffffffffffffffffffffffffffffffffff160217905550610181565b600033905090565b60008060009054906101000a900473ffffffffffffffffffffffffffffffffffffffff169050816000806101000a81548173ffffffffffffffffffffffffffffffffffffffff021916908373ffffffffffffffffffffffffffffffffffffffff1602179055508173ffffffffffffffffffffffffffffffffffffffff168173ffffffffffffffffffffffffffffffffffffffff167f8be0079c531659141344cd1fd0a4f28419497f9722a3daafe3b4186f6b6457e060405160405180910390a35050565b611b11806101906000396000f3fe6080604052600436106100915760003560e01c8063ce606ee011610059578063ce606ee014610157578063cfd8864c14610182578063eb9df7db1461019e578063f2fde38b146101c7578063f7b4d2f2146101f057610091565b80630973999514610096578063715018a6146100c157806389476069146100d85780638ab43142146101015780638da5cb5b1461012c575b600080fd5b3480156100a257600080fd5b506100ab610219565b6040516100b8919061103f565b60405180910390f35b3480156100cd57600080fd5b506100d661023f565b005b3480156100e457600080fd5b506100ff60048036038101906100fa919061109a565b610253565b005b34801561010d57600080fd5b5061011661037e565b60405161012391906110e2565b60405180910390f35b34801561013857600080fd5b50610141610387565b60405161014e919061103f565b60405180910390f35b34801561016357600080fd5b5061016c6103b0565b604051610179919061103f565b60405180910390f35b61019c60048036038101906101979190611279565b6103d6565b005b3480156101aa57600080fd5b506101c560048036038101906101c0919061109a565b6104cf565b005b3480156101d357600080fd5b506101ee60048036038101906101e9919061109a565b6105a3565b005b3480156101fc57600080fd5b506102176004803603810190610212919061109a565b610626565b005b600260009054906101000a900473ffffffffffffffffffffffffffffffffffffffff1681565b6102476106c4565b6102516000610742565b565b61025b6106c4565b6000610286308373ffffffffffffffffffffffffffffffffffffffff1661080690919063ffffffff16565b116102c6576040517f08c379a00000000000000000000000000000000000000000000000000000000081526004016102bd90611375565b60405180910390fd5b610319336102f3308473ffffffffffffffffffffffffffffffffffffffff1661080690919063ffffffff16565b8373ffffffffffffffffffffffffffffffffffffffff166108b89092919063ffffffff16565b507fa2bd9fcfcdba69f52bcd9a520846ad4bd685b187483f53efc42d035b2ddebff081610365308473ffffffffffffffffffffffffffffffffffffffff1661080690919063ffffffff16565b6040516103739291906113a4565b60405180910390a150565b60006001905090565b60008060009054906101000a900473ffffffffffffffffffffffffffffffffffffffff16905090565b600160009054906101000a900473ffffffffffffffffffffffffffffffffffffffff1681565b60008311610419576040517f08c379a000000000000000000000000000000000000000000000000000000000815260040161041090611419565b60405180910390fd5b600073ffffffffffffffffffffffffffffffffffffffff168473ffffffffffffffffffffffffffffffffffffffff1603610488576040517f08c379a000000000000000000000000000000000000000000000000000000000815260040161047f90611485565b60405180910390fd5b6104bc33610494610387565b858773ffffffffffffffffffffffffffffffffffffffff1661095f909392919063ffffffff16565b6104c93385858585610b07565b50505050565b600160009054906101000a900473ffffffffffffffffffffffffffffffffffffffff1673ffffffffffffffffffffffffffffffffffffffff163373ffffffffffffffffffffffffffffffffffffffff161461055f576040517f08c379a000000000000000000000000000000000000000000000000000000000815260040161055690611517565b60405180910390fd5b80600160006101000a81548173ffffffffffffffffffffffffffffffffffffffff021916908373ffffffffffffffffffffffffffffffffffffffff16021790555050565b6105ab6106c4565b600073ffffffffffffffffffffffffffffffffffffffff168173ffffffffffffffffffffffffffffffffffffffff160361061a576040517f08c379a0000000000000000000000000000000000000000000000000000000008152600401610611906115a9565b60405180910390fd5b61062381610742565b50565b600160009054906101000a900473ffffffffffffffffffffffffffffffffffffffff1673ffffffffffffffffffffffffffffffffffffffff163373ffffffffffffffffffffffffffffffffffffffff161461068057600080fd5b80600260006101000a81548173ffffffffffffffffffffffffffffffffffffffff021916908373ffffffffffffffffffffffffffffffffffffffff16021790555050565b6106cc610bbb565b73ffffffffffffffffffffffffffffffffffffffff166106ea610387565b73ffffffffffffffffffffffffffffffffffffffff1614610740576040517f08c379a000000000000000000000000000000000000000000000000000000000815260040161073790611615565b60405180910390fd5b565b60008060009054906101000a900473ffffffffffffffffffffffffffffffffffffffff169050816000806101000a81548173ffffffffffffffffffffffffffffffffffffffff021916908373ffffffffffffffffffffffffffffffffffffffff1602179055508173ffffffffffffffffffffffffffffffffffffffff168173ffffffffffffffffffffffffffffffffffffffff167f8be0079c531659141344cd1fd0a4f28419497f9722a3daafe3b4186f6b6457e060405160405180910390a35050565b600061081183610bc3565b15610835578173ffffffffffffffffffffffffffffffffffffffff163190506108b2565b8273ffffffffffffffffffffffffffffffffffffffff166370a08231836040518263ffffffff1660e01b815260040161086e919061103f565b602060405180830381865afa15801561088b573d6000803e3d6000fd5b505050506040513d601f19601f820116820180604052508101906108af919061164a565b90505b92915050565b60008082036108ca5760019050610958565b6108d384610bc3565b15610928578273ffffffffffffffffffffffffffffffffffffffff166108fc839081150290604051600060405180830381858888f1935050505015801561091e573d6000803e3d6000fd5b5060019050610958565b61095383838673ffffffffffffffffffffffffffffffffffffffff16610c459092919063ffffffff16565b600190505b9392505050565b6000810315610b015761097184610bc3565b15610ad2573373ffffffffffffffffffffffffffffffffffffffff168373ffffffffffffffffffffffffffffffffffffffff161480156109b15750803410155b6109f0576040517f08c379a00000000000000000000000000000000000000000000000000000000081526004016109e7906116e9565b60405180910390fd5b3073ffffffffffffffffffffffffffffffffffffffff168273ffffffffffffffffffffffffffffffffffffffff1614610a6b578173ffffffffffffffffffffffffffffffffffffffff166108fc829081150290604051600060405180830381858888f19350505050158015610a69573d6000803e3d6000fd5b505b80341115610acd573373ffffffffffffffffffffffffffffffffffffffff166108fc610aa08334610ccb90919063ffffffff16565b9081150290604051600060405180830381858888f19350505050158015610acb573d6000803e3d6000fd5b505b610b00565b610aff8383838773ffffffffffffffffffffffffffffffffffffffff16610ce1909392919063ffffffff16565b5b5b50505050565b6000600260009054906101000a900473ffffffffffffffffffffffffffffffffffffffff1690508073ffffffffffffffffffffffffffffffffffffffff1663b4ce68c687878787876040518663ffffffff1660e01b8152600401610b6f959493929190611777565b6020604051808303816000875af1158015610b8e573d6000803e3d6000fd5b505050506040513d601f19601f82011682018060405250810190610bb2919061164a565b50505050505050565b600033905090565b60008073ffffffffffffffffffffffffffffffffffffffff168273ffffffffffffffffffffffffffffffffffffffff161480610c3e575073eeeeeeeeeeeeeeeeeeeeeeeeeeeeeeeeeeeeeeee73ffffffffffffffffffffffffffffffffffffffff168273ffffffffffffffffffffffffffffffffffffffff16145b9050919050565b610cc68363a9059cbb60e01b8484604051602401610c649291906113a4565b604051602081830303815290604052907bffffffffffffffffffffffffffffffffffffffffffffffffffffffff19166020820180517bffffffffffffffffffffffffffffffffffffffffffffffffffffffff8381831617835250505050610d6a565b505050565b60008183610cd99190611807565b905092915050565b610d64846323b872dd60e01b858585604051602401610d029392919061183b565b604051602081830303815290604052907bffffffffffffffffffffffffffffffffffffffffffffffffffffffff19166020820180517bffffffffffffffffffffffffffffffffffffffffffffffffffffffff8381831617835250505050610d6a565b50505050565b6000610dcc826040518060400160405280602081526020017f5361666545524332303a206c6f772d6c6576656c2063616c6c206661696c65648152508573ffffffffffffffffffffffffffffffffffffffff16610e319092919063ffffffff16565b9050600081511115610e2c5780806020019051810190610dec919061189e565b610e2b576040517f08c379a0000000000000000000000000000000000000000000000000000000008152600401610e229061193d565b60405180910390fd5b5b505050565b6060610e408484600085610e49565b90509392505050565b606082471015610e8e576040517f08c379a0000000000000000000000000000000000000000000000000000000008152600401610e85906119cf565b60405180910390fd5b6000808673ffffffffffffffffffffffffffffffffffffffff168587604051610eb79190611a36565b60006040518083038185875af1925050503d8060008114610ef4576040519150601f19603f3d011682016040523d82523d6000602084013e610ef9565b606091505b5091509150610f0a87838387610f16565b92505050949350505050565b60608315610f78576000835103610f7057610f3085610f8b565b610f6f576040517f08c379a0000000000000000000000000000000000000000000000000000000008152600401610f6690611a99565b60405180910390fd5b5b829050610f83565b610f828383610fae565b5b949350505050565b6000808273ffffffffffffffffffffffffffffffffffffffff163b119050919050565b600082511115610fc15781518083602001fd5b806040517f08c379a0000000000000000000000000000000000000000000000000000000008152600401610ff59190611ab9565b60405180910390fd5b600073ffffffffffffffffffffffffffffffffffffffff82169050919050565b600061102982610ffe565b9050919050565b6110398161101e565b82525050565b60006020820190506110546000830184611030565b92915050565b6000604051905090565b600080fd5b600080fd5b6110778161101e565b811461108257600080fd5b50565b6000813590506110948161106e565b92915050565b6000602082840312156110b0576110af611064565b5b60006110be84828501611085565b91505092915050565b60008115159050919050565b6110dc816110c7565b82525050565b60006020820190506110f760008301846110d3565b92915050565b6000819050919050565b611110816110fd565b811461111b57600080fd5b50565b60008135905061112d81611107565b92915050565b600080fd5b600080fd5b6000601f19601f8301169050919050565b7f4e487b7100000000000000000000000000000000000000000000000000000000600052604160045260246000fd5b6111868261113d565b810181811067ffffffffffffffff821117156111a5576111a461114e565b5b80604052505050565b60006111b861105a565b90506111c4828261117d565b919050565b600067ffffffffffffffff8211156111e4576111e361114e565b5b6111ed8261113d565b9050602081019050919050565b82818337600083830152505050565b600061121c611217846111c9565b6111ae565b90508281526020810184848401111561123857611237611138565b5b6112438482856111fa565b509392505050565b600082601f8301126112605761125f611133565b5b8135611270848260208601611209565b91505092915050565b6000806000806080858703121561129357611292611064565b5b60006112a187828801611085565b94505060206112b28782880161111e565b935050604085013567ffffffffffffffff8111156112d3576112d2611069565b5b6112df8782880161124b565b925050606085013567ffffffffffffffff811115611300576112ff611069565b5b61130c8782880161124b565b91505092959194509250565b600082825260208201905092915050565b7f62616c616e6365206973207a65726f0000000000000000000000000000000000600082015250565b600061135f600f83611318565b915061136a82611329565b602082019050919050565b6000602082019050818103600083015261138e81611352565b9050919050565b61139e816110fd565b82525050565b60006040820190506113b96000830185611030565b6113c66020830184611395565b9392505050565b7f696e76616c696420616d6f756e74000000000000000000000000000000000000600082015250565b6000611403600e83611318565b915061140e826113cd565b602082019050919050565b60006020820190508181036000830152611432816113f6565b9050919050565b7f696e76616c696420746f6b656e00000000000000000000000000000000000000600082015250565b600061146f600d83611318565b915061147a82611439565b602082019050919050565b6000602082019050818103600083015261149e81611462565b9050919050565b7f796f7520646f6e277420686176652061207065726d697373696f6e202845727260008201527f6f72203a20343033290000000000000000000000000000000000000000000000602082015250565b6000611501602983611318565b915061150c826114a5565b604082019050919050565b60006020820190508181036000830152611530816114f4565b9050919050565b7f4f776e61626c653a206e6577206f776e657220697320746865207a65726f206160008201527f6464726573730000000000000000000000000000000000000000000000000000602082015250565b6000611593602683611318565b915061159e82611537565b604082019050919050565b600060208201905081810360008301526115c281611586565b9050919050565b7f4f776e61626c653a2063616c6c6572206973206e6f7420746865206f776e6572600082015250565b60006115ff602083611318565b915061160a826115c9565b602082019050919050565b6000602082019050818103600083015261162e816115f2565b9050919050565b60008151905061164481611107565b92915050565b6000602082840312156116605761165f611064565b5b600061166e84828501611635565b91505092915050565b7f57726f6e6720757365616765206f66204554482e756e6976657273616c54726160008201527f6e7366657246726f6d2829000000000000000000000000000000000000000000602082015250565b60006116d3602b83611318565b91506116de82611677565b604082019050919050565b60006020820190508181036000830152611702816116c6565b9050919050565b600081519050919050565b60005b83811015611732578082015181840152602081019050611717565b60008484015250505050565b600061174982611709565b6117538185611318565b9350611763818560208601611714565b61176c8161113d565b840191505092915050565b600060a08201905061178c6000830188611030565b6117996020830187611030565b6117a66040830186611395565b81810360608301526117b8818561173e565b905081810360808301526117cc818461173e565b90509695505050505050565b7f4e487b7100000000000000000000000000000000000000000000000000000000600052601160045260246000fd5b6000611812826110fd565b915061181d836110fd565b9250828203905081811115611835576118346117d8565b5b92915050565b60006060820190506118506000830186611030565b61185d6020830185611030565b61186a6040830184611395565b949350505050565b61187b816110c7565b811461188657600080fd5b50565b60008151905061189881611872565b92915050565b6000602082840312156118b4576118b3611064565b5b60006118c284828501611889565b91505092915050565b7f5361666545524332303a204552433230206f7065726174696f6e20646964206e60008201527f6f74207375636365656400000000000000000000000000000000000000000000602082015250565b6000611927602a83611318565b9150611932826118cb565b604082019050919050565b600060208201905081810360008301526119568161191a565b9050919050565b7f416464726573733a20696e73756666696369656e742062616c616e636520666f60008201527f722063616c6c0000000000000000000000000000000000000000000000000000602082015250565b60006119b9602683611318565b91506119c48261195d565b604082019050919050565b600060208201905081810360008301526119e8816119ac565b9050919050565b600081519050919050565b600081905092915050565b6000611a10826119ef565b611a1a81856119fa565b9350611a2a818560208601611714565b80840191505092915050565b6000611a428284611a05565b915081905092915050565b7f416464726573733a2063616c6c20746f206e6f6e2d636f6e7472616374000000600082015250565b6000611a83601d83611318565b9150611a8e82611a4d565b602082019050919050565b60006020820190508181036000830152611ab281611a76565b9050919050565b60006020820190508181036000830152611ad3818461173e565b90509291505056fea2646970667358221220e5eacca2984f64cec19c918397d82f6802d20a9e7c28291bd4f3df91448eb97064736f6c63430008110033",
  "linkReferences": {},
  "deployedLinkReferences": {}
}